{
    "_format": "hh-sol-artifact-1",
    "contractName": "MyTrackNFT",
    "sourceName": "contracts/TrackNFT.sol",
    "abi": [
        {
            "inputs": [],
            "stateMutability": "nonpayable",
            "type": "constructor"
        },
        {
            "anonymous": false,
            "inputs": [
                {
                    "indexed": true,
                    "internalType": "address",
                    "name": "owner",
                    "type": "address"
                },
                {
                    "indexed": true,
                    "internalType": "address",
                    "name": "approved",
                    "type": "address"
                },
                {
                    "indexed": true,
                    "internalType": "uint256",
                    "name": "tokenId",
                    "type": "uint256"
                }
            ],
            "name": "Approval",
            "type": "event"
        },
        {
            "anonymous": false,
            "inputs": [
                {
                    "indexed": true,
                    "internalType": "address",
                    "name": "owner",
                    "type": "address"
                },
                {
                    "indexed": true,
                    "internalType": "address",
                    "name": "operator",
                    "type": "address"
                },
                {
                    "indexed": false,
                    "internalType": "bool",
                    "name": "approved",
                    "type": "bool"
                }
            ],
            "name": "ApprovalForAll",
            "type": "event"
        },
        {
            "anonymous": false,
            "inputs": [
                {
                    "indexed": false,
                    "internalType": "address",
                    "name": "sender",
                    "type": "address"
                },
                {
                    "indexed": false,
                    "internalType": "uint256",
                    "name": "tokenId",
                    "type": "uint256"
                }
            ],
            "name": "NewEpicNFTMinted",
            "type": "event"
        },
        {
            "anonymous": false,
            "inputs": [
                {
                    "indexed": true,
                    "internalType": "address",
                    "name": "from",
                    "type": "address"
                },
                {
                    "indexed": true,
                    "internalType": "address",
                    "name": "to",
                    "type": "address"
                },
                {
                    "indexed": true,
                    "internalType": "uint256",
                    "name": "tokenId",
                    "type": "uint256"
                }
            ],
            "name": "Transfer",
            "type": "event"
        },
        {
            "inputs": [
                {
                    "internalType": "address",
                    "name": "to",
                    "type": "address"
                },
                {
                    "internalType": "uint256",
                    "name": "tokenId",
                    "type": "uint256"
                }
            ],
            "name": "approve",
            "outputs": [],
            "stateMutability": "nonpayable",
            "type": "function"
        },
        {
            "inputs": [
                {
                    "internalType": "address",
                    "name": "owner",
                    "type": "address"
                }
            ],
            "name": "balanceOf",
            "outputs": [
                {
                    "internalType": "uint256",
                    "name": "",
                    "type": "uint256"
                }
            ],
            "stateMutability": "view",
            "type": "function"
        },
        {
            "inputs": [
                {
                    "internalType": "uint256",
                    "name": "tokenId",
                    "type": "uint256"
                }
            ],
            "name": "getApproved",
            "outputs": [
                {
                    "internalType": "address",
                    "name": "",
                    "type": "address"
                }
            ],
            "stateMutability": "view",
            "type": "function"
        },
        {
            "inputs": [],
            "name": "getTotalNFTsMinted",
            "outputs": [
                {
                    "internalType": "uint256",
                    "name": "",
                    "type": "uint256"
                }
            ],
            "stateMutability": "view",
            "type": "function"
        },
        {
            "inputs": [
                {
                    "internalType": "address",
                    "name": "owner",
                    "type": "address"
                },
                {
                    "internalType": "address",
                    "name": "operator",
                    "type": "address"
                }
            ],
            "name": "isApprovedForAll",
            "outputs": [
                {
                    "internalType": "bool",
                    "name": "",
                    "type": "bool"
                }
            ],
            "stateMutability": "view",
            "type": "function"
        },
        {
            "inputs": [],
            "name": "makeAnEpicNFT",
            "outputs": [],
            "stateMutability": "nonpayable",
            "type": "function"
        },
        {
            "inputs": [],
            "name": "name",
            "outputs": [
                {
                    "internalType": "string",
                    "name": "",
                    "type": "string"
                }
            ],
            "stateMutability": "view",
            "type": "function"
        },
        {
            "inputs": [
                {
                    "internalType": "uint256",
                    "name": "tokenId",
                    "type": "uint256"
                }
            ],
            "name": "ownerOf",
            "outputs": [
                {
                    "internalType": "address",
                    "name": "",
                    "type": "address"
                }
            ],
            "stateMutability": "view",
            "type": "function"
        },
        {
            "inputs": [
                {
                    "internalType": "uint256",
                    "name": "tokenId",
                    "type": "uint256"
                }
            ],
            "name": "pickRandomWord",
            "outputs": [
                {
                    "internalType": "string",
                    "name": "",
                    "type": "string"
                }
            ],
            "stateMutability": "view",
            "type": "function"
        },
        {
            "inputs": [
                {
                    "internalType": "address",
                    "name": "from",
                    "type": "address"
                },
                {
                    "internalType": "address",
                    "name": "to",
                    "type": "address"
                },
                {
                    "internalType": "uint256",
                    "name": "tokenId",
                    "type": "uint256"
                }
            ],
            "name": "safeTransferFrom",
            "outputs": [],
            "stateMutability": "nonpayable",
            "type": "function"
        },
        {
            "inputs": [
                {
                    "internalType": "address",
                    "name": "from",
                    "type": "address"
                },
                {
                    "internalType": "address",
                    "name": "to",
                    "type": "address"
                },
                {
                    "internalType": "uint256",
                    "name": "tokenId",
                    "type": "uint256"
                },
                {
                    "internalType": "bytes",
                    "name": "_data",
                    "type": "bytes"
                }
            ],
            "name": "safeTransferFrom",
            "outputs": [],
            "stateMutability": "nonpayable",
            "type": "function"
        },
        {
            "inputs": [
                {
                    "internalType": "address",
                    "name": "operator",
                    "type": "address"
                },
                {
                    "internalType": "bool",
                    "name": "approved",
                    "type": "bool"
                }
            ],
            "name": "setApprovalForAll",
            "outputs": [],
            "stateMutability": "nonpayable",
            "type": "function"
        },
        {
            "inputs": [
                {
                    "internalType": "bytes4",
                    "name": "interfaceId",
                    "type": "bytes4"
                }
            ],
            "name": "supportsInterface",
            "outputs": [
                {
                    "internalType": "bool",
                    "name": "",
                    "type": "bool"
                }
            ],
            "stateMutability": "view",
            "type": "function"
        },
        {
            "inputs": [],
            "name": "symbol",
            "outputs": [
                {
                    "internalType": "string",
                    "name": "",
                    "type": "string"
                }
            ],
            "stateMutability": "view",
            "type": "function"
        },
        {
            "inputs": [
                {
                    "internalType": "uint256",
                    "name": "tokenId",
                    "type": "uint256"
                }
            ],
            "name": "tokenURI",
            "outputs": [
                {
                    "internalType": "string",
                    "name": "",
                    "type": "string"
                }
            ],
            "stateMutability": "view",
            "type": "function"
        },
        {
            "inputs": [
                {
                    "internalType": "address",
                    "name": "from",
                    "type": "address"
                },
                {
                    "internalType": "address",
                    "name": "to",
                    "type": "address"
                },
                {
                    "internalType": "uint256",
                    "name": "tokenId",
                    "type": "uint256"
                }
            ],
            "name": "transferFrom",
            "outputs": [],
            "stateMutability": "nonpayable",
            "type": "function"
        }
    ],
    "bytecode": "0x6080604052603260085560405180610160016040528061012f8152602001620041b461012f9139600990805190602001906200003d9291906200071f565b50604051806102e001604052806040518060400160405280601781526020017f73656520796f7520737061636520636f77626f792e2e2e00000000000000000081525081526020016040518060400160405280601581526020017f6561737920636f6d652c206561737920676f2e2e2e000000000000000000000081525081526020016040518060400160405280601681526020017f646f20796f752068617665206120636f6d726164653f0000000000000000000081525081526020016040518060400160405280600e81526020017f736c656570696e6720626561737400000000000000000000000000000000000081525081526020016040518060400160405280601681526020017f6c69666520697320627574206120647265616d2e2e2e0000000000000000000081525081526020016040518060400160405280601881526020017f73656520796f752073706163652073616d757261692e2e2e00000000000000008152508152602001604051806060016040528060218152602001620042e36021913981526020016040518060400160405280601e81526020017f796f7527726520676f6e6e61206361727279207468617420776569676874000081525081526020016040518060400160405280601981526020017f77686174657665722068617070656e732c2068617070656e730000000000000081525081526020016040518060400160405280601981526020017f77686174657665722068617070656e732c2068617070656e730000000000000081525081526020016040518060400160405280601681526020017f6c69666520697320627574206120647265616d2e2e2e0000000000000000000081525081526020016040518060400160405280601581526020017f6561737920636f6d652c206561737920676f2e2e2e00000000000000000000008152508152602001604051806060016040528060218152602001620042e36021913981526020016040518060400160405280601781526020017f73656520796f7520737061636520636f77626f792e2e2e00000000000000000081525081526020016040518060400160405280601881526020017f73656520796f752073706163652073616d757261692e2e2e000000000000000081525081526020016040518060400160405280601e81526020017f796f7527726520676f6e6e61206361727279207468617420776569676874000081525081526020016040518060400160405280601781526020017f73656520796f7520737061636520636f77626f792e2e2e00000000000000000081525081526020016040518060400160405280601581526020017f6561737920636f6d652c206561737920676f2e2e2e000000000000000000000081525081526020016040518060400160405280601681526020017f646f20796f752068617665206120636f6d726164653f0000000000000000000081525081526020016040518060400160405280600e81526020017f736c656570696e6720626561737400000000000000000000000000000000000081525081526020016040518060400160405280601681526020017f6c69666520697320627574206120647265616d2e2e2e0000000000000000000081525081526020016040518060400160405280601881526020017f73656520796f752073706163652073616d757261692e2e2e00000000000000008152508152602001604051806060016040528060218152602001620042e360219139815250600a90601762000553929190620007b0565b503480156200056157600080fd5b506040518060400160405280600881526020017f5370696b654e46540000000000000000000000000000000000000000000000008152506040518060400160405280600681526020017f53515541524500000000000000000000000000000000000000000000000000008152508160009080519060200190620005e69291906200071f565b508060019080519060200190620005ff9291906200071f565b5050506200064d6040518060400160405280601781526020017f54686973206973206d79204e465420436f6e74726163740000000000000000008152506200065360201b62000ec21760201c565b620009d1565b620006f3816040516024016200066a9190620008e5565b6040516020818303038152906040527f41304fac000000000000000000000000000000000000000000000000000000007bffffffffffffffffffffffffffffffffffffffffffffffffffffffff19166020820180517bffffffffffffffffffffffffffffffffffffffffffffffffffffffff8381831617835250505050620006f660201b60201c565b50565b60008151905060006a636f6e736f6c652e6c6f679050602083016000808483855afa5050505050565b8280546200072d906200095b565b90600052602060002090601f0160209004810192826200075157600085556200079d565b82601f106200076c57805160ff19168380011785556200079d565b828001600101855582156200079d579182015b828111156200079c5782518255916020019190600101906200077f565b5b509050620007ac919062000817565b5090565b82805482825590600052602060002090810192821562000804579160200282015b8281111562000803578251829080519060200190620007f29291906200071f565b5091602001919060010190620007d1565b5b50905062000813919062000836565b5090565b5b808211156200083257600081600090555060010162000818565b5090565b5b808211156200085a57600081816200085091906200085e565b5060010162000837565b5090565b5080546200086c906200095b565b6000825580601f10620008805750620008a1565b601f016020900490600052602060002090810190620008a0919062000817565b5b50565b6000620008b18262000909565b620008bd818562000914565b9350620008cf81856020860162000925565b620008da81620009c0565b840191505092915050565b60006020820190508181036000830152620009018184620008a4565b905092915050565b600081519050919050565b600082825260208201905092915050565b60005b838110156200094557808201518184015260208101905062000928565b8381111562000955576000848401525b50505050565b600060028204905060018216806200097457607f821691505b602082108114156200098b576200098a62000991565b5b50919050565b7f4e487b7100000000000000000000000000000000000000000000000000000000600052602260045260246000fd5b6000601f19601f8301169050919050565b6137d380620009e16000396000f3fe608060405234801561001057600080fd5b50600436106101005760003560e01c806370a0823111610097578063b88d4fde11610066578063b88d4fde146102bf578063c87b56dd146102db578063de9d132f1461030b578063e985e9c51461031557610100565b806370a082311461023757806395d89b4114610267578063a22cb46514610285578063b4c3b8be146102a157610100565b806323b872dd116100d357806323b872dd1461019f5780633e1831dd146101bb57806342842e0e146101eb5780636352211e1461020757610100565b806301ffc9a71461010557806306fdde0314610135578063081812fc14610153578063095ea7b314610183575b600080fd5b61011f600480360381019061011a91906122ee565b610345565b60405161012c91906129a5565b60405180910390f35b61013d610427565b60405161014a91906129c0565b60405180910390f35b61016d60048036038101906101689190612340565b6104b9565b60405161017a9190612915565b60405180910390f35b61019d600480360381019061019891906122b2565b61053e565b005b6101b960048036038101906101b491906121ac565b610656565b005b6101d560048036038101906101d09190612340565b6106b6565b6040516101e291906129c0565b60405180910390f35b610205600480360381019061020091906121ac565b6107d4565b005b610221600480360381019061021c9190612340565b6107f4565b60405161022e9190612915565b60405180910390f35b610251600480360381019061024c9190612147565b6108a6565b60405161025e9190612c40565b60405180910390f35b61026f61095e565b60405161027c91906129c0565b60405180910390f35b61029f600480360381019061029a9190612276565b6109f0565b005b6102a9610a06565b6040516102b69190612c40565b60405180910390f35b6102d960048036038101906102d491906121fb565b610a17565b005b6102f560048036038101906102f09190612340565b610a79565b60405161030291906129c0565b60405180910390f35b610313610bcb565b005b61032f600480360381019061032a9190612170565b610e2e565b60405161033c91906129a5565b60405180910390f35b60007f80ac58cd000000000000000000000000000000000000000000000000000000007bffffffffffffffffffffffffffffffffffffffffffffffffffffffff1916827bffffffffffffffffffffffffffffffffffffffffffffffffffffffff1916148061041057507f5b5e139f000000000000000000000000000000000000000000000000000000007bffffffffffffffffffffffffffffffffffffffffffffffffffffffff1916827bffffffffffffffffffffffffffffffffffffffffffffffffffffffff1916145b80610420575061041f82610f5b565b5b9050919050565b60606000805461043690612ed4565b80601f016020809104026020016040519081016040528092919081815260200182805461046290612ed4565b80156104af5780601f10610484576101008083540402835291602001916104af565b820191906000526020600020905b81548152906001019060200180831161049257829003601f168201915b5050505050905090565b60006104c482610fc5565b610503576040517f08c379a00000000000000000000000000000000000000000000000000000000081526004016104fa90612ba0565b60405180910390fd5b6004600083815260200190815260200160002060009054906101000a900473ffffffffffffffffffffffffffffffffffffffff169050919050565b6000610549826107f4565b90508073ffffffffffffffffffffffffffffffffffffffff168373ffffffffffffffffffffffffffffffffffffffff1614156105ba576040517f08c379a00000000000000000000000000000000000000000000000000000000081526004016105b190612c00565b60405180910390fd5b8073ffffffffffffffffffffffffffffffffffffffff166105d9611031565b73ffffffffffffffffffffffffffffffffffffffff161480610608575061060781610602611031565b610e2e565b5b610647576040517f08c379a000000000000000000000000000000000000000000000000000000000815260040161063e90612ae0565b60405180910390fd5b6106518383611039565b505050565b610667610661611031565b826110f2565b6106a6576040517f08c379a000000000000000000000000000000000000000000000000000000000815260040161069d90612c20565b60405180910390fd5b6106b18383836111d0565b505050565b606060006106ea6106c684611437565b6040516020016106d691906128d1565b6040516020818303038152906040526115e4565b9050600a80549050816106fd9190612f80565b9050600a8181548110610739577f4e487b7100000000000000000000000000000000000000000000000000000000600052603260045260246000fd5b90600052602060002001805461074e90612ed4565b80601f016020809104026020016040519081016040528092919081815260200182805461077a90612ed4565b80156107c75780601f1061079c576101008083540402835291602001916107c7565b820191906000526020600020905b8154815290600101906020018083116107aa57829003601f168201915b5050505050915050919050565b6107ef83838360405180602001604052806000815250610a17565b505050565b6000806002600084815260200190815260200160002060009054906101000a900473ffffffffffffffffffffffffffffffffffffffff169050600073ffffffffffffffffffffffffffffffffffffffff168173ffffffffffffffffffffffffffffffffffffffff16141561089d576040517f08c379a000000000000000000000000000000000000000000000000000000000815260040161089490612b20565b60405180910390fd5b80915050919050565b60008073ffffffffffffffffffffffffffffffffffffffff168273ffffffffffffffffffffffffffffffffffffffff161415610917576040517f08c379a000000000000000000000000000000000000000000000000000000000815260040161090e90612b00565b60405180910390fd5b600360008373ffffffffffffffffffffffffffffffffffffffff1673ffffffffffffffffffffffffffffffffffffffff168152602001908152602001600020549050919050565b60606001805461096d90612ed4565b80601f016020809104026020016040519081016040528092919081815260200182805461099990612ed4565b80156109e65780601f106109bb576101008083540402835291602001916109e6565b820191906000526020600020905b8154815290600101906020018083116109c957829003601f168201915b5050505050905090565b610a026109fb611031565b8383611617565b5050565b6000610a126007611784565b905090565b610a28610a22611031565b836110f2565b610a67576040517f08c379a0000000000000000000000000000000000000000000000000000000008152600401610a5e90612c20565b60405180910390fd5b610a7384848484611792565b50505050565b6060610a8482610fc5565b610ac3576040517f08c379a0000000000000000000000000000000000000000000000000000000008152600401610aba90612b80565b60405180910390fd5b6000600660008481526020019081526020016000208054610ae390612ed4565b80601f0160208091040260200160405190810160405280929190818152602001828054610b0f90612ed4565b8015610b5c5780601f10610b3157610100808354040283529160200191610b5c565b820191906000526020600020905b815481529060010190602001808311610b3f57829003601f168201915b505050505090506000610b6d6117ee565b9050600081511415610b83578192505050610bc6565b600082511115610bb8578082604051602001610ba0929190612817565b60405160208183030381529060405292505050610bc6565b610bc184611805565b925050505b919050565b600854610bd86007611784565b10610c18576040517f08c379a0000000000000000000000000000000000000000000000000000000008152600401610c0f90612bc0565b60405180910390fd5b6000610c246007611784565b90506000610c31826106b6565b90506000600982604051602001610c4992919061283b565b60405160208183030381529060405290506000610c6584611437565b604051602001610c75919061286a565b60405160208183030381529060405290506000610cba82610c95856118ac565b604051602001610ca692919061288c565b6040516020818303038152906040526118ac565b9050610cfa6040518060400160405280600981526020017f0a2d2d2d2d2d2d2d2d0000000000000000000000000000000000000000000000815250610ec2565b610d0383610ec2565b600081604051602001610d1691906128f3565b6040516020818303038152906040529050610d656040518060400160405280601581526020017f0a2d2d2d2d2d2d2d2d2d2d2d2d2d2d2d2d2d2d2d2d0000000000000000000000815250610ec2565b610d6e81610ec2565b610dac6040518060400160405280601581526020017f2d2d2d2d2d2d2d2d2d2d2d2d2d2d2d2d2d2d2d2d0a0000000000000000000000815250610ec2565b610db63387611a6a565b610dc08682611a88565b610dca6007611afc565b7febb98688741ffa4c7589bf325de30cf7becb63de567842e1ccdb6cb949fdc82c3387604051610dfb92919061297c565b60405180910390a1610e26604051806060016040528060258152602001613739602591398733611b12565b505050505050565b6000600560008473ffffffffffffffffffffffffffffffffffffffff1673ffffffffffffffffffffffffffffffffffffffff16815260200190815260200160002060008373ffffffffffffffffffffffffffffffffffffffff1673ffffffffffffffffffffffffffffffffffffffff16815260200190815260200160002060009054906101000a900460ff16905092915050565b610f5881604051602401610ed691906129c0565b6040516020818303038152906040527f41304fac000000000000000000000000000000000000000000000000000000007bffffffffffffffffffffffffffffffffffffffffffffffffffffffff19166020820180517bffffffffffffffffffffffffffffffffffffffffffffffffffffffff8381831617835250505050611bb1565b50565b60007f01ffc9a7000000000000000000000000000000000000000000000000000000007bffffffffffffffffffffffffffffffffffffffffffffffffffffffff1916827bffffffffffffffffffffffffffffffffffffffffffffffffffffffff1916149050919050565b60008073ffffffffffffffffffffffffffffffffffffffff166002600084815260200190815260200160002060009054906101000a900473ffffffffffffffffffffffffffffffffffffffff1673ffffffffffffffffffffffffffffffffffffffff1614159050919050565b600033905090565b816004600083815260200190815260200160002060006101000a81548173ffffffffffffffffffffffffffffffffffffffff021916908373ffffffffffffffffffffffffffffffffffffffff160217905550808273ffffffffffffffffffffffffffffffffffffffff166110ac836107f4565b73ffffffffffffffffffffffffffffffffffffffff167f8c5be1e5ebec7d5bd14f71427d1e84f3dd0314c0f7b2291e5b200ac8c7c3b92560405160405180910390a45050565b60006110fd82610fc5565b61113c576040517f08c379a000000000000000000000000000000000000000000000000000000000815260040161113390612ac0565b60405180910390fd5b6000611147836107f4565b90508073ffffffffffffffffffffffffffffffffffffffff168473ffffffffffffffffffffffffffffffffffffffff16148061118957506111888185610e2e565b5b806111c757508373ffffffffffffffffffffffffffffffffffffffff166111af846104b9565b73ffffffffffffffffffffffffffffffffffffffff16145b91505092915050565b8273ffffffffffffffffffffffffffffffffffffffff166111f0826107f4565b73ffffffffffffffffffffffffffffffffffffffff1614611246576040517f08c379a000000000000000000000000000000000000000000000000000000000815260040161123d90612a40565b60405180910390fd5b600073ffffffffffffffffffffffffffffffffffffffff168273ffffffffffffffffffffffffffffffffffffffff1614156112b6576040517f08c379a00000000000000000000000000000000000000000000000000000000081526004016112ad90612a80565b60405180910390fd5b6112c1838383611bda565b6112cc600082611039565b6001600360008573ffffffffffffffffffffffffffffffffffffffff1673ffffffffffffffffffffffffffffffffffffffff168152602001908152602001600020600082825461131c9190612dea565b925050819055506001600360008473ffffffffffffffffffffffffffffffffffffffff1673ffffffffffffffffffffffffffffffffffffffff16815260200190815260200160002060008282546113739190612d09565b92505081905550816002600083815260200190815260200160002060006101000a81548173ffffffffffffffffffffffffffffffffffffffff021916908373ffffffffffffffffffffffffffffffffffffffff160217905550808273ffffffffffffffffffffffffffffffffffffffff168473ffffffffffffffffffffffffffffffffffffffff167fddf252ad1be2c89b69c2b068fc378daa952ba7f163c4a11628f55a4df523b3ef60405160405180910390a4611432838383611bdf565b505050565b6060600082141561147f576040518060400160405280600181526020017f300000000000000000000000000000000000000000000000000000000000000081525090506115df565b600082905060005b600082146114b157808061149a90612f37565b915050600a826114aa9190612d5f565b9150611487565b60008167ffffffffffffffff8111156114f3577f4e487b7100000000000000000000000000000000000000000000000000000000600052604160045260246000fd5b6040519080825280601f01601f1916602001820160405280156115255781602001600182028036833780820191505090505b5090505b600085146115d85760018261153e9190612dea565b9150600a8561154d9190612f80565b60306115599190612d09565b60f81b818381518110611595577f4e487b7100000000000000000000000000000000000000000000000000000000600052603260045260246000fd5b60200101907effffffffffffffffffffffffffffffffffffffffffffffffffffffffffffff1916908160001a905350600a856115d19190612d5f565b9450611529565b8093505050505b919050565b6000816040516020016115f79190612800565b6040516020818303038152906040528051906020012060001c9050919050565b8173ffffffffffffffffffffffffffffffffffffffff168373ffffffffffffffffffffffffffffffffffffffff161415611686576040517f08c379a000000000000000000000000000000000000000000000000000000000815260040161167d90612aa0565b60405180910390fd5b80600560008573ffffffffffffffffffffffffffffffffffffffff1673ffffffffffffffffffffffffffffffffffffffff16815260200190815260200160002060008473ffffffffffffffffffffffffffffffffffffffff1673ffffffffffffffffffffffffffffffffffffffff16815260200190815260200160002060006101000a81548160ff0219169083151502179055508173ffffffffffffffffffffffffffffffffffffffff168373ffffffffffffffffffffffffffffffffffffffff167f17307eab39ab6107e8899845ad3d59bd9653f200f220920489ca2b5937696c318360405161177791906129a5565b60405180910390a3505050565b600081600001549050919050565b61179d8484846111d0565b6117a984848484611be4565b6117e8576040517f08c379a00000000000000000000000000000000000000000000000000000000081526004016117df90612a20565b60405180910390fd5b50505050565b606060405180602001604052806000815250905090565b606061181082610fc5565b61184f576040517f08c379a000000000000000000000000000000000000000000000000000000000815260040161184690612be0565b60405180910390fd5b60006118596117ee565b9050600081511161187957604051806020016040528060008152506118a4565b8061188384611437565b604051602001611894929190612817565b6040516020818303038152906040525b915050919050565b606060008251905060008114156118d55760405180602001604052806000815250915050611a65565b600060036002836118e69190612d09565b6118f09190612d5f565b60046118fc9190612d90565b9050600060208261190d9190612d09565b67ffffffffffffffff81111561194c577f4e487b7100000000000000000000000000000000000000000000000000000000600052604160045260246000fd5b6040519080825280601f01601f19166020018201604052801561197e5781602001600182028036833780820191505090505b509050600060405180606001604052806040815260200161375e604091399050600181016020830160005b86811015611a225760038101905062ffffff818a015116603f8160121c168401518060081b905060ff603f83600c1c1686015116810190508060081b905060ff603f8360061c1686015116810190508060081b905060ff603f831686015116810190508060e01b905080845260048401935050506119a9565b506003860660018114611a3c5760028114611a4c57611a57565b613d3d60f01b6002830352611a57565b603d60f81b60018303525b508484525050819450505050505b919050565b611a84828260405180602001604052806000815250611d7b565b5050565b611a9182610fc5565b611ad0576040517f08c379a0000000000000000000000000000000000000000000000000000000008152600401611ac790612b40565b60405180910390fd5b80600660008481526020019081526020016000209080519060200190611af7929190611fd3565b505050565b6001816000016000828254019250508190555050565b611bac838383604051602401611b2a939291906129e2565b6040516020818303038152906040527fe3849f79000000000000000000000000000000000000000000000000000000007bffffffffffffffffffffffffffffffffffffffffffffffffffffffff19166020820180517bffffffffffffffffffffffffffffffffffffffffffffffffffffffff8381831617835250505050611bb1565b505050565b60008151905060006a636f6e736f6c652e6c6f679050602083016000808483855afa5050505050565b505050565b505050565b6000611c058473ffffffffffffffffffffffffffffffffffffffff16611dd6565b15611d6e578373ffffffffffffffffffffffffffffffffffffffff1663150b7a02611c2e611031565b8786866040518563ffffffff1660e01b8152600401611c509493929190612930565b602060405180830381600087803b158015611c6a57600080fd5b505af1925050508015611c9b57506040513d601f19601f82011682018060405250810190611c989190612317565b60015b611d1e573d8060008114611ccb576040519150601f19603f3d011682016040523d82523d6000602084013e611cd0565b606091505b50600081511415611d16576040517f08c379a0000000000000000000000000000000000000000000000000000000008152600401611d0d90612a20565b60405180910390fd5b805181602001fd5b63150b7a0260e01b7bffffffffffffffffffffffffffffffffffffffffffffffffffffffff1916817bffffffffffffffffffffffffffffffffffffffffffffffffffffffff191614915050611d73565b600190505b949350505050565b611d858383611df9565b611d926000848484611be4565b611dd1576040517f08c379a0000000000000000000000000000000000000000000000000000000008152600401611dc890612a20565b60405180910390fd5b505050565b6000808273ffffffffffffffffffffffffffffffffffffffff163b119050919050565b600073ffffffffffffffffffffffffffffffffffffffff168273ffffffffffffffffffffffffffffffffffffffff161415611e69576040517f08c379a0000000000000000000000000000000000000000000000000000000008152600401611e6090612b60565b60405180910390fd5b611e7281610fc5565b15611eb2576040517f08c379a0000000000000000000000000000000000000000000000000000000008152600401611ea990612a60565b60405180910390fd5b611ebe60008383611bda565b6001600360008473ffffffffffffffffffffffffffffffffffffffff1673ffffffffffffffffffffffffffffffffffffffff1681526020019081526020016000206000828254611f0e9190612d09565b92505081905550816002600083815260200190815260200160002060006101000a81548173ffffffffffffffffffffffffffffffffffffffff021916908373ffffffffffffffffffffffffffffffffffffffff160217905550808273ffffffffffffffffffffffffffffffffffffffff16600073ffffffffffffffffffffffffffffffffffffffff167fddf252ad1be2c89b69c2b068fc378daa952ba7f163c4a11628f55a4df523b3ef60405160405180910390a4611fcf60008383611bdf565b5050565b828054611fdf90612ed4565b90600052602060002090601f0160209004810192826120015760008555612048565b82601f1061201a57805160ff1916838001178555612048565b82800160010185558215612048579182015b8281111561204757825182559160200191906001019061202c565b5b5090506120559190612059565b5090565b5b8082111561207257600081600090555060010161205a565b5090565b600061208961208484612c80565b612c5b565b9050828152602081018484840111156120a157600080fd5b6120ac848285612e92565b509392505050565b6000813590506120c3816136dc565b92915050565b6000813590506120d8816136f3565b92915050565b6000813590506120ed8161370a565b92915050565b6000815190506121028161370a565b92915050565b600082601f83011261211957600080fd5b8135612129848260208601612076565b91505092915050565b60008135905061214181613721565b92915050565b60006020828403121561215957600080fd5b6000612167848285016120b4565b91505092915050565b6000806040838503121561218357600080fd5b6000612191858286016120b4565b92505060206121a2858286016120b4565b9150509250929050565b6000806000606084860312156121c157600080fd5b60006121cf868287016120b4565b93505060206121e0868287016120b4565b92505060406121f186828701612132565b9150509250925092565b6000806000806080858703121561221157600080fd5b600061221f878288016120b4565b9450506020612230878288016120b4565b935050604061224187828801612132565b925050606085013567ffffffffffffffff81111561225e57600080fd5b61226a87828801612108565b91505092959194509250565b6000806040838503121561228957600080fd5b6000612297858286016120b4565b92505060206122a8858286016120c9565b9150509250929050565b600080604083850312156122c557600080fd5b60006122d3858286016120b4565b92505060206122e485828601612132565b9150509250929050565b60006020828403121561230057600080fd5b600061230e848285016120de565b91505092915050565b60006020828403121561232957600080fd5b6000612337848285016120f3565b91505092915050565b60006020828403121561235257600080fd5b600061236084828501612132565b91505092915050565b61237281612e1e565b82525050565b61238181612e30565b82525050565b600061239282612cc6565b61239c8185612cdc565b93506123ac818560208601612ea1565b6123b58161306d565b840191505092915050565b60006123cb82612cd1565b6123d58185612ced565b93506123e5818560208601612ea1565b6123ee8161306d565b840191505092915050565b600061240482612cd1565b61240e8185612cfe565b935061241e818560208601612ea1565b80840191505092915050565b6000815461243781612ed4565b6124418186612cfe565b9450600182166000811461245c576001811461246d576124a0565b60ff198316865281860193506124a0565b61247685612cb1565b60005b8381101561249857815481890152600182019150602081019050612479565b838801955050505b50505092915050565b60006124b6600783612cfe565b91506124c18261307e565b600782019050919050565b60006124d9603283612ced565b91506124e4826130a7565b604082019050919050565b60006124fc602583612ced565b9150612507826130f6565b604082019050919050565b600061251f601c83612ced565b915061252a82613145565b602082019050919050565b6000612542602483612ced565b915061254d8261316e565b604082019050919050565b6000612565601983612ced565b9150612570826131bd565b602082019050919050565b6000612588606783612cfe565b9150612593826131e6565b606782019050919050565b60006125ab602c83612ced565b91506125b682613281565b604082019050919050565b60006125ce600d83612cfe565b91506125d9826132d0565b600d82019050919050565b60006125f1603883612ced565b91506125fc826132f9565b604082019050919050565b6000612614602a83612ced565b915061261f82613348565b604082019050919050565b6000612637602983612ced565b915061264282613397565b604082019050919050565b600061265a602e83612ced565b9150612665826133e6565b604082019050919050565b600061267d600283612cfe565b915061268882613435565b600282019050919050565b60006126a0602083612ced565b91506126ab8261345e565b602082019050919050565b60006126c3603183612ced565b91506126ce82613487565b604082019050919050565b60006126e6602c83612ced565b91506126f1826134d6565b604082019050919050565b6000612709602683612ced565b915061271482613525565b604082019050919050565b600061272c602f83612ced565b915061273782613574565b604082019050919050565b600061274f600a83612cfe565b915061275a826135c3565b600a82019050919050565b6000612772602183612ced565b915061277d826135ec565b604082019050919050565b6000612795600a83612cfe565b91506127a08261363b565b600a82019050919050565b60006127b8601d83612cfe565b91506127c382613664565b601d82019050919050565b60006127db603183612ced565b91506127e68261368d565b604082019050919050565b6127fa81612e88565b82525050565b600061280c82846123f9565b915081905092915050565b600061282382856123f9565b915061282f82846123f9565b91508190509392505050565b6000612847828561242a565b915061285382846123f9565b915061285e826125c1565b91508190509392505050565b6000612875826124a9565b915061288182846123f9565b915081905092915050565b600061289782612742565b91506128a382856123f9565b91506128ae8261257b565b91506128ba82846123f9565b91506128c582612670565b91508190509392505050565b60006128dc82612788565b91506128e882846123f9565b915081905092915050565b60006128fe826127ab565b915061290a82846123f9565b915081905092915050565b600060208201905061292a6000830184612369565b92915050565b60006080820190506129456000830187612369565b6129526020830186612369565b61295f60408301856127f1565b81810360608301526129718184612387565b905095945050505050565b60006040820190506129916000830185612369565b61299e60208301846127f1565b9392505050565b60006020820190506129ba6000830184612378565b92915050565b600060208201905081810360008301526129da81846123c0565b905092915050565b600060608201905081810360008301526129fc81866123c0565b9050612a0b60208301856127f1565b612a186040830184612369565b949350505050565b60006020820190508181036000830152612a39816124cc565b9050919050565b60006020820190508181036000830152612a59816124ef565b9050919050565b60006020820190508181036000830152612a7981612512565b9050919050565b60006020820190508181036000830152612a9981612535565b9050919050565b60006020820190508181036000830152612ab981612558565b9050919050565b60006020820190508181036000830152612ad98161259e565b9050919050565b60006020820190508181036000830152612af9816125e4565b9050919050565b60006020820190508181036000830152612b1981612607565b9050919050565b60006020820190508181036000830152612b398161262a565b9050919050565b60006020820190508181036000830152612b598161264d565b9050919050565b60006020820190508181036000830152612b7981612693565b9050919050565b60006020820190508181036000830152612b99816126b6565b9050919050565b60006020820190508181036000830152612bb9816126d9565b9050919050565b60006020820190508181036000830152612bd9816126fc565b9050919050565b60006020820190508181036000830152612bf98161271f565b9050919050565b60006020820190508181036000830152612c1981612765565b9050919050565b60006020820190508181036000830152612c39816127ce565b9050919050565b6000602082019050612c5560008301846127f1565b92915050565b6000612c65612c76565b9050612c718282612f06565b919050565b6000604051905090565b600067ffffffffffffffff821115612c9b57612c9a61303e565b5b612ca48261306d565b9050602081019050919050565b60008190508160005260206000209050919050565b600081519050919050565b600081519050919050565b600082825260208201905092915050565b600082825260208201905092915050565b600081905092915050565b6000612d1482612e88565b9150612d1f83612e88565b9250827fffffffffffffffffffffffffffffffffffffffffffffffffffffffffffffffff03821115612d5457612d53612fb1565b5b828201905092915050565b6000612d6a82612e88565b9150612d7583612e88565b925082612d8557612d84612fe0565b5b828204905092915050565b6000612d9b82612e88565b9150612da683612e88565b9250817fffffffffffffffffffffffffffffffffffffffffffffffffffffffffffffffff0483118215151615612ddf57612dde612fb1565b5b828202905092915050565b6000612df582612e88565b9150612e0083612e88565b925082821015612e1357612e12612fb1565b5b828203905092915050565b6000612e2982612e68565b9050919050565b60008115159050919050565b60007fffffffff0000000000000000000000000000000000000000000000000000000082169050919050565b600073ffffffffffffffffffffffffffffffffffffffff82169050919050565b6000819050919050565b82818337600083830152505050565b60005b83811015612ebf578082015181840152602081019050612ea4565b83811115612ece576000848401525b50505050565b60006002820490506001821680612eec57607f821691505b60208210811415612f0057612eff61300f565b5b50919050565b612f0f8261306d565b810181811067ffffffffffffffff82111715612f2e57612f2d61303e565b5b80604052505050565b6000612f4282612e88565b91507fffffffffffffffffffffffffffffffffffffffffffffffffffffffffffffffff821415612f7557612f74612fb1565b5b600182019050919050565b6000612f8b82612e88565b9150612f9683612e88565b925082612fa657612fa5612fe0565b5b828206905092915050565b7f4e487b7100000000000000000000000000000000000000000000000000000000600052601160045260246000fd5b7f4e487b7100000000000000000000000000000000000000000000000000000000600052601260045260246000fd5b7f4e487b7100000000000000000000000000000000000000000000000000000000600052602260045260246000fd5b7f4e487b7100000000000000000000000000000000000000000000000000000000600052604160045260246000fd5b6000601f19601f8301169050919050565b7f547261636b202300000000000000000000000000000000000000000000000000600082015250565b7f4552433732313a207472616e7366657220746f206e6f6e20455243373231526560008201527f63656976657220696d706c656d656e7465720000000000000000000000000000602082015250565b7f4552433732313a207472616e736665722066726f6d20696e636f72726563742060008201527f6f776e6572000000000000000000000000000000000000000000000000000000602082015250565b7f4552433732313a20746f6b656e20616c7265616479206d696e74656400000000600082015250565b7f4552433732313a207472616e7366657220746f20746865207a65726f2061646460008201527f7265737300000000000000000000000000000000000000000000000000000000602082015250565b7f4552433732313a20617070726f766520746f2063616c6c657200000000000000600082015250565b7f222c20226465736372697074696f6e223a2022416e204e465420636f6c6c656360008201527f74696f6e206261736564206f6e20436f77626f79204265626f7020416e696d6560208201527f222c2022696d616765223a2022646174613a696d6167652f7376672b786d6c3b60408201527f6261736536342c00000000000000000000000000000000000000000000000000606082015250565b7f4552433732313a206f70657261746f7220717565727920666f72206e6f6e657860008201527f697374656e7420746f6b656e0000000000000000000000000000000000000000602082015250565b7f3c2f746578743e3c2f7376673e00000000000000000000000000000000000000600082015250565b7f4552433732313a20617070726f76652063616c6c6572206973206e6f74206f7760008201527f6e6572206e6f7220617070726f76656420666f7220616c6c0000000000000000602082015250565b7f4552433732313a2062616c616e636520717565727920666f7220746865207a6560008201527f726f206164647265737300000000000000000000000000000000000000000000602082015250565b7f4552433732313a206f776e657220717565727920666f72206e6f6e657869737460008201527f656e7420746f6b656e0000000000000000000000000000000000000000000000602082015250565b7f45524337323155524953746f726167653a2055524920736574206f66206e6f6e60008201527f6578697374656e7420746f6b656e000000000000000000000000000000000000602082015250565b7f227d000000000000000000000000000000000000000000000000000000000000600082015250565b7f4552433732313a206d696e7420746f20746865207a65726f2061646472657373600082015250565b7f45524337323155524953746f726167653a2055524920717565727920666f722060008201527f6e6f6e6578697374656e7420746f6b656e000000000000000000000000000000602082015250565b7f4552433732313a20617070726f76656420717565727920666f72206e6f6e657860008201527f697374656e7420746f6b656e0000000000000000000000000000000000000000602082015250565b7f596f752063616e206f6e6c79206d696e742061206d6178696d756d206f66203560008201527f30204e4654730000000000000000000000000000000000000000000000000000602082015250565b7f4552433732314d657461646174613a2055524920717565727920666f72206e6f60008201527f6e6578697374656e7420746f6b656e0000000000000000000000000000000000602082015250565b7f7b226e616d65223a202200000000000000000000000000000000000000000000600082015250565b7f4552433732313a20617070726f76616c20746f2063757272656e74206f776e6560008201527f7200000000000000000000000000000000000000000000000000000000000000602082015250565b7f46495253545f574f524400000000000000000000000000000000000000000000600082015250565b7f646174613a6170706c69636174696f6e2f6a736f6e3b6261736536342c000000600082015250565b7f4552433732313a207472616e736665722063616c6c6572206973206e6f74206f60008201527f776e6572206e6f7220617070726f766564000000000000000000000000000000602082015250565b6136e581612e1e565b81146136f057600080fd5b50565b6136fc81612e30565b811461370757600080fd5b50565b61371381612e3c565b811461371e57600080fd5b50565b61372a81612e88565b811461373557600080fd5b5056fe416e204e465420772f20494420257320686173206265656e206d696e74656420746f2025734142434445464748494a4b4c4d4e4f505152535455565758595a6162636465666768696a6b6c6d6e6f707172737475767778797a303132333435363738392b2fa2646970667358221220cb450a487ba3931830bb5b1f12fe29b82765e4c17c003887333659d7b8f4217564736f6c634300080100333c73766720786d6c6e733d27687474703a2f2f7777772e77332e6f72672f323030302f73766727207072657365727665417370656374526174696f3d27784d696e594d696e206d656574272076696577426f783d273020302033353020333530273e3c7374796c653e2e62617365207b2066696c6c3a2077686974653b20666f6e742d66616d696c793a2073657269663b20666f6e742d73697a653a20323470783b207d3c2f7374796c653e3c726563742077696474683d273130302527206865696768743d2731303025272066696c6c3d27626c61636b27202f3e3c7465787420783d273530252720793d273530252720636c6173733d27626173652720646f6d696e616e742d626173656c696e653d276d6964646c652720746578742d616e63686f723d276d6964646c65273e61726520796f75206c6976696e6720696e20746865207265616c20776f726c643f",
    "linkReferences": {},
    "deployedLinkReferences": {}
}